:020000040000fa
:100000000200de021003000000000002100b0000de
:10001000000000021013000000000002101b00008e
:10002000000000021023000000000002102b00005e
:10003000000000021033000000000002103b00002e
:10004000000000021043000000000002104b0000fe
:10005000000000021053000000000002105b0000ce
:10006000000000021063000000000002106b00009e
:10007000000000021073000000000002107b00006e
:10008000000000021083000000000002108b00003e
:10009000000000020d021200f0b900030200d8e4d3
:1000a00090000278a479018002f0a3d8fcd9fa90dc
:1000b00000a5aa82ab839000f6780979018015e447
:1000c00093a3ac82ad838a828b83f0a3aa82ab8395
:1000d0008c828d83d8e9d9e71202e0120d2175d008
:1000e0000075813f75188075931e5392fe0200962d
:1000f00079015392fe220010000000000200bb01b3
:1001000002e722c0925392fec082c08389828a8312
:10011000bb0003e08002e493d083d082d09222bb64
:100120000015c0925392fec082c0838a838982f0f8
:10013000d083d082d09222bb0101f722cac0e0e670
:10014000f30908dafad0e0fa22cac0e0e0f208a324
:10015000dafad0e0fa22600c08c6c313c618c61338
:10016000c6d5e0f422700422600d18c6c333c60859
:10017000c633c6d5e0f41822e4735392fed083d080
:10018000822518f8c518c39824fbcef208e520f2a2
:1001900008e9c0e07908e709f208defad0e0f9eff3
:1001a000f208d0e0fed0e0f208eef208e473a818fe
:1001b000e2fe08e208f520e9c0e07908e208f70964
:1001c000dffae208ffd0e0f9e208c0e0e208c0e0b0
:1001d00088185392fe22e584f208e585f222e208af
:1001e000f584e2f585227403800474028000c9c09e
:1001f000e0e518c399f518c912013cd0e0f9227462
:10020000038000c8c0e0e518c398f518c81201497a
:10021000d0e0f8227400f5d374022408f5d253928a
:10022000fe22a2afe433f8c2af5392fe906270e0b8
:10023000a2e740f5e9c333906272f0906270e0d2b9
:10024000e0f0e0a2e740fbe8a2e092af2274fa12ed
:10025000017aa2af33f8c2afed900002f0eca3f048
:10026000a37462f0a37473f0a3e4f0e9a3f0a374a1
:1002700012f0a37442f0eb906272f0ea906271f0b7
:100280007400f5d575d40275d601906270e0d2e1a4
:10029000f0e0a2e740fbe8a2e092af7f010201aeee
:1002a0005392fe906276e075c680e59e648070fa97
:1002b0009062707408f02274fa12017af9800c8a44
:1002c000828b83e029f9a3aa82ab83ecfeedffeedb
:1002d00024ff1cef34fffdee4f70e47f010201aefe
:1002e0005392fe900001e090001af0e5c7ff75c739
:1002f000007c007d707a007b901202b7e924a5fe95
:100300008fc77f01e5c7f5088fc77c007d807a0025
:100310007b801202b7e92efe8508c70fefc3940356
:1003200040e2ee7027e59d54186410700890001aa2
:10033000e0a2e040179000017403f005929000a540
:10034000e0f582a3e0f58305921201781202a090f5
:100350000001e4f01202141205ed12061d12067cd3
:1003600080fb74f812017a15181518a8181201d616
:1003700090620ee0fee4f0906211e0ffa2e45019fa
:100380007480f09000227407f012055f6006120579
:100390006a120178900022e4f0efa2e2500b906222
:1003a00011e4f0900022f0805c900022e0f87402ea
:1003b00068703e906216e0ff9000391201ffeff97d
:1003c0007a207b621206290518051805188f0890f7
:1003d000003c1205541205791205626004744080d5
:1003e000027448906211f0e8496003020541020579
:1003f00024740668700612056a120178900022e0e3
:1004000060030204d3efa2e0400302054175083106
:10041000750900750a0078081201e679087a207bd0
:100420006212062905180518051890003ee4f0a38d
:10043000f0900031e054e0600e24e0606a24a06097
:100440004024e06071807ea3e014602624fe601ddd
:1004500024fe600a24fc601f24fe602080671209cd
:10046000e3900022e064047064746080621209dd2d
:1004700080ef1209d780ea120b1680e5120c4e802d
:10048000e0a3e0600e24fa600f24fe601024fe60fa
:1004900011803212080e80c9120a2980c4120aec97
:1004a00080bf120bf080ba90003e74a4f0a37406d3
:1004b000f01206a480ab90003e745ef0a37407f0c7
:1004c00012075e809c9000227404f0809c7440901f
:1004d0006211f0900022e0f874016870597f029078
:1004e000003ce0f8a3e0f9c3e89420e99400500749
:1004f000e8f50a7f0a8003750a209000391201ff8f
:10050000a90a7a207b621206490518051805188584
:100510000a08120579120554ef906211f0e50ac33a
:100520009420501d12055f600612056a1201789032
:100530000022e4f0800b740568700612056a12014f
:1005400078ee90620ef0a8181201de051805187feb
:10055000030201aec3e09508f0a3e09400f02290fe
:10056000003ee0f8a3e0f9e84922059290003ee061
:10057000f582a3e0f583059222900039e0f9a3e02b
:10058000faa3e0fbe92508f9ea3400fa900039e91a
:10059000f0a3eaf0a3ebf0a322c008c0097800881a
:1005a0000874232508f58274003400f583e953921a
:1005b000fef008e8c3940540e67800880874282512
:1005c00008f58274003400f583e9f008e8c3940567
:1005d00040e9d009d008225392fe90001b7402f02b
:1005e000a3e4f0900022f0790312059922c008c01c
:1005f0000975082175090078081201ea7c007d0060
:100600007a407b00120d250518051890001b740216
:10061000f090620f04f0e0a2e750fb80b553f4fec7
:10062000d29043fe015392fe22eec0e012066460b7
:10063000115392fee012011fe9240109ea3400fa85
:10064000d8efd0e0fe5392fe22eec0e012066460c6
:10065000111200fe5392fef0e9240109ea3400fa77
:10066000d8ef80de8a828b83e9f8a918e3fc09e3de
:10067000fd09e3feecf9edfaeefbe822eec0e053f3
:1006800092fe906206e0f8906202e0fe906204e062
:10069000e8a2e250031205d7eea2e0500312036273
:1006a000d0e0fe2274f712017a900032e07003026b
:1006b000074714600302075390001a7401f090007a
:1006c00022e0f87030900037e0f8a3e0f9e84970d4
:1006d000059000ab80749000397461f0a37400f051
:1006e000a3e4f0a3e8f0a3e9f09000227402f090f4
:1006f00000ab0480637402687059900033e02440ba
:10070000f508a3e03400f509e508541f70128508c8
:100710000a85090b7405780a120156a90a120222e9
:10072000900037e0240354fcf97c617d0074047868
:1007300008120165aa08ab0912024d900022e4f0ec
:100740009000ab7405801190001a7402f0900022a2
:10075000e480059000227404f07f040201ae5392fd
:10076000fe900032e06403701a90003974a7f0a381
:100770007400f0a3e4f0a37406f0a3e4f090002268
:100780000480059000227404f0225392fe9000a190
:10079000e4f0a3740ff02274fa12017a15181518f8
:1007a000a8181201d6eafcebf87a007b0008803822
:1007b000e8604d05929000a1e0fda3e0f5838d82f5
:1007c000a3e493fdec6d6034e96d70099000a1e045
:1007d000faa3e0fb189000a1e02efea3e03400ff96
:1007e0009000a1eef0a3eff09000a1e0f584a3e06b
:1007f000f585e4059293fe70b7e860047a007b000b
:10080000a8181201de051805187f010201aec00804
:10081000120be260030208e9a3e0f8a3e060030220
:1008200008e9a3e064027002a3e060030208e99013
:100830000031e02480600914604f14605c0208e914
:10084000e860030208e990002ee06004780180026d
:1008500078009000a3e8f0a3e4f090002de0600a97
:100860009000a3e04402f0a3e4f0900022e06404ce
:10087000601490003974a3f0a37400f0a3e4f0a313
:100880007402120c45f0d0082290001be064047042
:10089000589000a3e4f0a380d0e8547ff5089000be
:1008a0001be064047043e508c39406503c741b25a8
:1008b00008f58274003400f583e854806018a3a31f
:1008c000a3a3a3a3a3e064037004780180027800cb
:1008d0009000a3e88090e582240cf582e583340043
:1008e000f583e0640370e780e19000227404809552
:1008f00074f912017a15181518a8181201d6e9fa18
:10090000900037120be860030209c190001be064fd
:1009100004600b900035120be860030209c19000df
:1009200031e0541f60091460231460120209c19061
:100930000033e064017015ea90002d0209c69000b2
:1009400035e0547ff508900033e060047900807949
:10095000e508c39406506ae50890620ef0741b2502
:1009600008f58474003400f585900035e05480600b
:1009700021ea6004741080027440906211f0ea6011
:100980000474038001e40592a3a3a3a3a3a3a3f08b
:100990008026ea6004742080027480906214f0ea79
:1009a000600474038001e4c0e0e584240cf582e572
:1009b000853400f583d0e0f05392fe90620ee4801f
:1009c000059000227404f07901a8181201de0518c0
:1009d00005187f020201ae79001208f02279011297
:1009e00008f0225392fe900035120be87018a31203
:1009f0000be87012900033e0f8a3e0f9e85480fab5
:100a0000e9fbea4b60079000227404801ae89062c8
:100a100000f090001b6009e06402700c7403800712
:100a2000e0640370037402f02274f812017a120772
:100a30008a900033e0faa3e0f914600814600d1402
:100a4000603280387b007a0079018034eafb7a00da
:100a50007902120797120ad7e92402f9ea3400fa58
:100a600089828a83e493f8740193f990003ce8f05a
:100a7000a3e9801ceafb7a00790380047b007a00fa
:100a8000120797120ad7a37b801200fea3f0a3e4fb
:100a9000f0900039e0fca3e0fda3e0feec4d4e90a9
:100aa0000022700474048029e064046025900037fb
:100ab000e0faa3e0fb90003ce0f8a3e0f9c3ea9879
:100ac000eb99500890003ceaf0a3ebf09000227400
:100ad00001f07f030201ae900039eaf0a3ebf0a32e
:100ae0007480f0900039e0f9a3e0fa22120be27072
:100af00010a3120be8700aa3e064017002a3e06087
:100b0000079000227404800c900039741cf0a374c8
:100b100000120c3bf02274f812017a90001be06482
:100b2000027003020bc9900035120be86003020b40
:100b3000c9a3120be86003020bc9900034e0600304
:100b4000020bc912078a900033e07003020bd17bbd
:100b5000007a0079021207978a088b09ae08af095c
:100b6000ee4f6065900033e0f88e828f83a3a3a3dd
:100b7000a3a3e493c0e0e8fad0e06a70d290001b2f
:100b80007404f0e8a3f0750a008e828f83a3a3a3f8
:100b9000a3e493f8e50ac3985045850a08741d2517
:100ba00008f58274003400f583e4f07b007a007964
:100bb000041207978a828b83e58245836007a3a38b
:100bc000a3e49370e6050a80c09000227404f080cc
:100bd0000e90001cf090001b7403f0f912059902ae
:100be0000ad25392fe900033e0f8a3e0f9e84922dc
:100bf00074f812017a90001be064047019900031bf
:100c0000e064817011120be5700c900037e0640114
:100c10007002a3e060079000227404801a900035ef
:100c2000e0241df508a3e03400f509900039e5083b
:100c3000f0a3e509120c3bf0020ad2f0a3e4f0a302
:100c400004120c4522f0a3e4f0900022042274f96f
:100c500012017a15181518a8181201d690001be079
:100c600064046003020cf5900031e064016003024b
:100c70000cf5900037120be8707b12078a7b007a24
:100c80000079021207978a828b83e5824583600f81
:100c9000a3a3a3a3a3e493f890001ce06870de7bf9
:100ca000007a0279041207978a828b83e582458352
:100cb00060430592900033e0f8a3e0f9900035e03e
:100cc000faa3e0fb858284858385a3a3e493fceaf1
:100cd0006c7001eb600f0592a3a3a3e493fce86c96
:100ce0007001e970ba741d2af58274003bf583e83f
:100cf0005392fe80059000227404f00209c95392b9
:100d0000fe2274fa12017a15181518eafeebffa8f4
:100d100018eef208eff2aa18ab937901120cfe80dc
:100d2000ee12009322ecf9a818e2fc08e2fdec4d6b
:100d30006017e9f88a828b83e85392fef0a3ec24d3
:100d4000ff1ced34fffd4c70ef5392fe22ffffffbe
:100d5000ffffffffffffffffffffffffffffffffa3
:100d6000ffffffffffffffffffffffffffffffff93
:100d7000ffffffffffffffffffffffffffffffff83
:100d8000ffffffffffffffffffffffffffffffff73
:100d9000ffffffffffffffffffffffffffffffff63
:100da000ffffffffffffffffffffffffffffffff53
:100db000ffffffffffffffffffffffffffffffff43
:100dc000ffffffffffffffffffffffffffffffff33
:100dd000ffffffffffffffffffffffffffffffff23
:100de000ffffffffffffffffffffffffffffffff13
:100df000ffffffffffffffffffffffffffffffff03
:100e0000fffffffffffffffffffffffffffffffff2
:100e1000ffffffffffffffffffffffffffffffffe2
:100e2000ffffffffffffffffffffffffffffffffd2
:100e3000ffffffffffffffffffffffffffffffffc2
:100e4000ffffffffffffffffffffffffffffffffb2
:100e5000ffffffffffffffffffffffffffffffffa2
:100e6000ffffffffffffffffffffffffffffffff92
:100e7000ffffffffffffffffffffffffffffffff82
:100e8000ffffffffffffffffffffffffffffffff72
:100e9000ffffffffffffffffffffffffffffffff62
:100ea000ffffffffffffffffffffffffffffffff52
:100eb000ffffffffffffffffffffffffffffffff42
:100ec000ffffffffffffffffffffffffffffffff32
:100ed000ffffffffffffffffffffffffffffffff22
:100ee000ffffffffffffffffffffffffffffffff12
:100ef000ffffffffffffffffffffffffffffffff02
:100f000012010002000000205824feff0000010230
:100f1000030109021b0001010480250904000000ef
:100f2000fe01020409210d03e84000010104030948
:100f300004120342006c00750065006700690067d9
:100f400000610016034c006f007700200045006e22
:100f50000065007200670079000a03310032003337
:100f6000003400080344004600550000ffffffff67
:100f7000ffffffffffffffffffffffffffffffff81
:100f8000ffffffffffffffffffffffffffffffff71
:100f9000ffffffffffffffffffffffffffffffff61
:100fa000ffffffffffffffffffffffffffffffff51
:100fb000ffffffffffffffffffffffffffffffff41
:100fc000ffffffffffffffffffffffffffffffff31
:100fd000ffffffffffffffffffffffffffffffff21
:100fe000ffffffffffffffffffffffffffffffff11
:100ff000ffffffffffffffffffffffffffffffff01
:101000000210f7022f53ffffffffff02398bffff94
:10101000ffffff023a7affffffffff023b2effffb9
:10102000ffffff0224fcffffffffff0237baffffb5
:10103000ffffffffffffffffffffff023ad2ffffaf
:10104000ffffff023a53ffffffffffffffffffff1e
:10105000ffffff022f38ffffffffffffffffffff34
:10106000ffffffffffffffffffffff0238c2ffff91
:10107000ffffff023ba1ffffffffff023947ffff1a
:10108000ffffff022f5e7582fc75837f74001211d3
:1010900012121133b900030210e1e479347802b876
:1010a00000028004f709d8fce490030278e0790597
:1010b0008002f0a3d8fcd9fa9007e1aa82ab839012
:1010c0001139786579028015e493a3ac82ad838ae7
:1010d000828b83f0a3aa82ab838c828d83d8e9d9db
:1010e000e77582cb7583d4740212111275823b7539
:1010f00083de740212111275d00075813f753100c4
:10110000753202753303759f007593005392fe028a
:101110001091c09ff59fe473d09f225392fed0831d
:10112000d082c09fe493c0e0740193c0e074029346
:10113000f59f2279015392fe22030000020102036f
:1011400000000f00c3a88ee8b19dcf7f5eb98b9fd2
:1011500041efb055f401fa00960064004b003200f4
:101160001e001400d6be898e00010602121315144b
:1011700029417671ffc1fbe84c90728be7b351892e
:1011800063ab232302841872aa612f3b51a8e53771
:1011900049fbc9ca0c18532cfd45e300400000ff71
:1011a000fffffffaffffff00008000620000000564
:1011b000000600070000000100010000010001021c
:1011c000020300020000000000020201000240428f
:1011d0000f0019000000093d0000e4fffffffb3491
:1011e0009b5f8000008000100000000000000100f4
:1011f0000000ff00000000000805070000000000dc
:101200000201050000000000020200800100000051
:101210000108030000000000000d000000070000ae
:10122000010480000100008000000000070a0400a3
:10123000000000000709d71add1ae31ae91aef1aad
:10124000f51a5f1a391c1b1c9f1c871c8d1c800003
:101250000405020000008000040606000000800073
:10126000040280000404800002000b0000008000e3
:101270000600ff0517bd1303192f14991c3f1c917d
:101280001ba51c591aff530601ffffff00000000b9
:1012900080ffffffff00000000c000000012111bd4
:1012a00017ad0212111b2fad0212111b5aad021203
:1012b000111ba7ad0212111bc0ad0212111bf2ad22
:1012c0000212111b30ae0212111b62ae0212111b70
:1012d000d9ae0212111beeae0212111b0daf02129b
:1012e000111b32af0212111b89af0212111b20b465
:1012f0000212111bd4b40212111b437f0012111be6
:101300006d7f0012111bb07f0012111b8ac50212e3
:10131000111be3c50212111b4bc60212111b63c63f
:101320000212111b8dc60212111ba7c60212111b3d
:10133000dbc60212111b31c70212111b6cc702124d
:10134000111b1cc80212111b40c80212111bc8c875
:101350000212111bf3c80212111b35c90212111b14
:101360005ac90212111b6ec90212111b83c9021243
:10137000111b2bca0212111bc1c00212111bddc0ae
:101380000212111b17c10212111b25c10212111bdf
:1013900056c10212111b83c10212111b8cc1021211
:1013a000111bcfc10212111b52c20212111bc3c268
:1013b0000212111b11c30212111b41c30212111b95
:1013c00096c30212111b6ac40212111b75c40212c9
:1013d000111ba8c40212111be1c40212111b33c558
:1013e0000212111b70c50212111b44dd0212111be7
:1013f00064dd0212111b8ddd0212111b60dc021272
:10140000111b74dc0212111bcbdc0212111b24de37
:101410000212111bdddb0212111b0adc0212111b6e
:101420002e750012111b95750012111bac75001260
:10143000111bf0750012111b36760012111b9076ed
:101440000012111be4770012111b0c790012111b02
:10145000ae790012111bd2790012111b147a0012fe
:10146000111bc27a0012111b107b0012111b6d7b25
:101470000012111b807b0012111b807c0012111bbb
:10148000a07d0012111b167e0012111b803c001261
:10149000111b2b3e0012111b9d3e0012111bf03f31
:1014a0000012111b62400012111b9c400012111b04
:1014b0006a410012111bf8410012111bbb420012bd
:1014c000111be3430012111bd7440012111b1846d5
:1014d0000012111b80460012111be8460012111b5e
:1014e00065470012111b06480012111b78480012b4
:1014f000111b11490012111b77490012111be549fc
:101500000012111b3a4a0012111bd04a0012111b83
:10151000834b0012111b4a4c0012111b074e001284
:10152000111b52500012111b97500012111b135126
:101530000012111b7b510012111bc9510012111b0b
:101540005e530012111bfe530012111b6f54001248
:10155000111bef550012111b50560012111b66573c
:101560000012111b55580012111b71590012111b4a
:10157000cb5a0012111b825c0012111b325f001249
:10158000111bc05f0012111b7d600012111b7061e6
:101590000012111bd4610012111b39660012111bbd
:1015a0009f680012111b71690012111be46b00127d
:1015b000111b066d0012111b336e0012111b4a6eb7
:1015c0000012111b31ca0212111b6fca0212111b29
:1015d000d6ca0212111b02cb0212111bcecb021271
:1015e000111ba5cc0212111bcbda0212111b24db3a
:1015f0000212111b85db0212111b00800112111b4c
:101600001e800112111b3b800112111b5880011218
:10161000111bda800112111b6d810112111b3f8316
:101620000112111ba5830112111bec830112111b66
:1016300029840112111b5e840112111ba084011266
:10164000111b0e850112111bbc850112111bca85cd
:101650000112111b06870112111b2e890112111b89
:10166000ba890112111bee890112111b1c8b011288
:10167000111b478c0112111b688c0112111bbc8cb1
:101680000112111be48c0112111b208d0112111b80
:10169000538d0112111b68910112111b90910112bf
:1016a000111bdc910112111b65970112111bab97e5
:1016b0000112111beb970112111ba1980112111bb2
:1016c00078990112111bee9b0112111b5f9d0112f3
:1016d000111bd09d0112111b0aa00112111b82a027
:1016e0000112111bc6a00112111b14a10112111b22
:1016f00067a10112111b03a20112111b58a20112b2
:10170000111bb3a20112111bbda20112111bfaa3de
:101710000112111b1ba40112111baea40112111bfb
:101720007aa50112111b26a60112111bd7a70112bf
:10173000111bf9a70112111b16aa0112111b6bab89
:101740000112111b08ac0112111b6eac0112111b0e
:1017500006ad0112111bf6ae0112111b07af0112eb
:10176000111b11af0112111b00b10112111b5db150
:101770000112111b9ab10112111b07b20112111ba8
:1017800036b20112111bdfb20112111b5ab3011242
:10179000111bbbb30112111b31b40112111b50b448
:1017a0000112111b85b40112111bbbb40112111bd4
:1017b0001ab50112111b28b50112111b67b50112d0
:1017c000111bd8b50112111b46d90212111bcdd91c
:1017d0000212111bf1d90212111b3cda0212111b69
:1017e00079da0212111bde7f0012111b348f0212f4
:1017f000111b608f0212111bac8f0212111bf98f8b
:101800000212111b75900212111be5920212111b9c
:1018100017940212111b1f970212111b2e9802120d
:10182000111b24990212111bab9a0212111b269b49
:101830000212111b389c0212111bebcc0212111b5d
:1018400017cd0212111b2dcd0212111bc7cd021292
:10185000111bedce0212111b93df0112111bfadfd7
:101860000112111b17e00112111b44e00112111ba0
:1018700070e00112111ba4e00112111bf1e0011232
:10188000111b1ee10112111b81e10112111bdce190
:101890000112111ba1e20112111b1fe30112111b06
:1018a000c1e40112111b79e50112111b30e801128c
:1018b000111ba3eb0112111be5eb0112111b3aecfa
:1018c0000112111bf2ec0112111bccee0112111bc3
:1018d00070ef0112111bb1ef0112111b1df001126b
:1018e000111b75f00112111b9bf00112111beef080
:1018f0000112111b2ff10112111baef20112111b6b
:10190000c8f30112111bd9f30112111b43f5011287
:10191000111b59f50112111b81f50112111b20f643
:101920000112111b35f60112111b67f60112111b72
:101930007ff70112111b3ff80112111b75f80112fc
:10194000111bbaf80112111b6df90112111bc8f914
:101950000112111bcdfa0112111b21fb0112111be7
:1019600065fb0112111bacfc0112111bc9fe011217
:10197000111bf9fe0112111b8fd70212111b9cd7ec
:101980000212111bbfd70212111b02d90212111b26
:101990000fd90212111b3dd90212111b2cbb0212ce
:1019a000111ba0bb0212111bc5bb0212111b14bce0
:1019b0000212111b31bc0212111bfcbc0212111bc2
:1019c000a6be0212111b04bf0212111b12bf02128b
:1019d000111b19c00212111b82c00212111b62ffdf
:1019e0000112111b90ff0112111bc0ff0112111bec
:1019f0008fcf0212111b1cd00212111b4ed00212eb
:101a0000111bbfd00212111b63d10212111b76d120
:101a10000212111ba4b60112111bfbb60112111bfd
:101a20009bb70112111b0fb80112111b2fb9011224
:101a3000111beeb90112111b0dbc0112111ba8bd27
:101a40000112111b2ebe0112111bf6be0112111b39
:101a50000ec00112111b7fc00112111b00c1011227
:101a6000111bf4c10112111b53c40112111bcac472
:101a70000112111b6ac50112111b14c60112111ba0
:101a80001fc70112111b12c80112111b10cc011229
:101a9000111bb0cd0112111bafce0112111b46d18b
:101aa0000112111b48d40112111b1dd60112111b6a
:101ab000afd80112111be3dc0112111bfddd011275
:101ac000111b7cde0112111b06df0112111b6fdfdf
:101ad0000112111bafd50212111b2dd60212111bc0
:101ae00043d60212111b59d60212111b6fd60212d5
:101af000111b90d60212111ba6d60212111bbcd6c6
:101b00000212111b579c0212111bc29c0212111bc4
:101b1000249d0212111b4a9d0212111b0e9e0212dd
:101b2000111bb89e0212111b0d9f0212111bac9fbc
:101b30000212111b0fa00212111b80a00212111b16
:101b4000f2a00212111b05a10212111b2ba10212fd
:101b5000111b60a10212111b88a10212111bbaa154
:101b60000212111b09a20212111b49a20212111b1f
:101b70009da20212111baca20212111bb5a20212ed
:101b8000111b6da30212111bbca40212111bfcb489
:101b90000212111bf2b50212111b5fb70212111bc8
:101ba0001eb80212111b87b80212111bc2b8021212
:101bb000111b11b90212111b5ab90212111ba3b940
:101bc0000212111b73ba0212111b8eba0212111be0
:101bd000a9ba0212111bbbba0212111bcdba021212
:101be000111be2ba0212111bf6ba0212111b04bb3e
:101bf0000212111b10bb0212111bcbd30212111bbc
:101c000018d40212111b00800212111ba7800212ad
:101c1000111b648c0212111b998c0212111b9e8ed7
:101c20000212111bd1d10212111b39d20212111b47
:101c30005dd20212111bacd20212111b01d302128f
:101c4000111ba8d30212111bc1d30212111bdea457
:101c50000212111bfba40212111b08a60212111b77
:101c600069a60212111b14a70212111b93a80212db
:101c7000111b37a90212111b7ea90212111be7a921
:101c80000212111b45aa0212111b99aa0212111b62
:101c900028ab0212111ba6ab0212111b80ac021260
:101ca000111b49de0212111b4dde0212111b4fde09
:101cb0000212111b55de0212111b86100012111b9d
:101cc000d7dc0212111ba2dd0212111bf5dd02e0ae
:101cd00066701008a3e066700a08a3e06670040846
:101ce000a3e06622c3e7960809e7960809e7960885
:101cf00009e796a2d265d03322c3e09608a3e09606
:101d000008a3e09608a3e096a2d265d03322c021b2
:101d1000c3e096f52108a3e096422108a3e096428d
:101d20002108a3e0964221a2d265d033e5217001bb
:101d3000d3d02122c3e7960809e7960809e7960859
:101d400009e79622c3e09608a3e09608a3e0960868
:101d5000a3e09622c021c3e096f52108a3e09642b5
:101d60002108a3e096422108a3e09645217001d303
:101d7000d02122080808eac0e0ebc0e086f0e7a422
:101d8000fa180986f0e7a42afa180986f0e7a42ac7
:101d9000fa180986f0e7a42afa1986f0e7a4fbe509
:101da000f02afa190886f0e7a42bfbe5f03afa19b5
:101db0000886f0e7a42bfbe5f03afa18180986f03c
:101dc000e7a4c5f02bfbe43afa1908e7c5f0c6a46e
:101dd00026f6e5f03bfbe43afa1886f0e7a4f6e5d0
:101de000f00826f6e43b08f6e43a08f6d0e0fbd02b
:101df000e0fa22e4cfc0e0e4cec0e0e4cdc0e0e40d
:101e0000ccc0e075f020c3e633f608e633f608e60a
:101e100033f608e633f6181818ec33fced33fdee14
:101e200033feef33ffc3ec9709ed9709ee9709ef07
:101e300097191919400fffec97fc09ed97fd09ee72
:101e400097fe191906d5f0beecf709edf709eef784
:101e500009eff7191919d0e0fcd0e0fdd0e0fed071
:101e6000e0ff22121ecb181818121df3121eba1909
:101e7000191922121eba191919080808e618181893
:101e800020e7e0121df3121ecb18181822090909c9
:101e9000e719191920e7dc080808e618181820e7e0
:101ea00003021df3121ecb181818121df3121ecbbd
:101eb000181818121eba19191922e4c397f709e461
:101ec00097f709e497f709e497f722e4c396f60831
:101ed000e496f608e496f608e496f62260170808f9
:101ee00008c6a2e713c618c613c618c613c618c676
:101ef00013c6d5e0e9226016080808c6c313c61841
:101f0000c613c618c613c618c613c6d5e0ea227093
:101f100009080808226016181818c6c333c608c670
:101f200033c608c633c608c633c6d5e0ea22e6275c
:101f3000f60809e637f60809e637f60809e637f63f
:101f400022e026f608a3e036f608a3e036f608a35a
:101f5000e036f622e026f008a3e036f008a3e036eb
:101f6000f008a3e036f022c3e697f60809e697f6f4
:101f70000809e697f60809e697f622c3e0c696f642
:101f800008a3e0c696f608a3e0c696f608a3e0c646
:101f900096f622e056f608a3e056f608a3e056f6b9
:101fa00008a3e056f622e647f60809e647f60809d0
:101fb000e647f60809e647f622e046f608a3e046bb
:101fc000f608a3e046f608a3e046f622e046f0084d
:101fd000a3e046f008a3e046f008a3e046f022e0c4
:101fe00066f608a3e066f608a3e066f608a3e066d6
:101ff000f622e0f608a3e0f608a3e0f608a3e0f670
:1020000022e6f008a3e6f008a3e6f008a3e6f02233
:10201000e0faa3e0fba3e0fca3e0fd22eaf0a3ebdf
:10202000f0a3ecf0a3edf022cac0e0e6f0a308dada
:10203000fad0e0fa22cac0e0e0a30592f0a305922c
:10204000daf6d0e0ca225392fefae9fb7921e7f0f2
:10205000a309dafae8f0a3ebf9f0a3ecf0a3edf0b2
:10206000a3eef0a3eff0a3e520f0a3e5f0f0a3e5e5
:1020700092f0a3e584f0a3e585f0a3e581f0a3e564
:1020800031f0a3e532f0a3e533f0a3d0e0fad0e0dd
:10209000f0a3caf0eac0e0e0c0e07a007b0022537f
:1020a00092fecac0e0ebc0e07921e0f7a309dafaba
:1020b000e0f8a3e0f9a3e0fca3e0fda3e0fea3e0c9
:1020c000ffa3e0f520a3e0f5f0a3e0c0e0a3e0f576
:1020d00084a3e0f585a3d0e0f592d0e0fbd0e0fa50
:1020e000e0f581a3e0f531a3e0f532a3e0f533a3f9
:1020f000d0e0d0e0e0c0e0a3e0c0e0ea4b70027abc
:102100000122b90010bb0008e88af084f8aaf02286
:10211000e4fbc8fa22eb70227b10c833c8c933c96c
:10212000335007c39ac3dbf280069a50012adbead8
:10213000c833f4c8c933f4c9fa2275f008e4c833c7
:10214000c8c933c933c99ac99b5004c92ac93bd5e8
:10215000f0ecfbc833f4c8e4c9fa22600d08c6a24b
:10216000e713c618c613c6d5e0f322600c08c6c331
:1021700013c618c613c6d5e0f422700422600d18e9
:10218000c6c333c608c633c6d5e0f41822253210bc
:10219000af08f532400215338008f532400215339e
:1021a000d2af22c0d0253210af08f532500205332d
:1021b0008008f53250020533d2afd0d0222532f557
:1021c0008210af08f532400215338008f532400224
:1021d0001533d2af85338322c5822532c582c583ac
:1021e000353310af07f5338582328007f5338582aa
:1021f00032d2afc583222532f582e43533f583220e
:102200002532f584e43533f58522e4735392fe25b7
:1022100032c582c0e0e53334ffc583c0e0e532c398
:10222000958224f810af0885833385823280088533
:102230008333858232d2afcef0a3e520f0a378219c
:10224000e608f0a3defaeff0a3e58124faf8e60849
:10225000f0a3e608f0a3e608f0a30808e608f0a358
:10226000e608f0a315811581d0e0fed0e0f81581d5
:1022700015811581e8c0e0eec0e0225392fe2532c0
:10228000c582c0e0e53334ffc583c0e0e532c395c5
:102290008224f910af0885833385823280088583d4
:1022a00033858232d2afcef0a3e520f0a37821e6c9
:1022b00008f0a3defaeff0a3e58124fbf8e608f0ce
:1022c000a3e608f0a30808e608f0a3e608f0a315c3
:1022d000811581d0e0fed0e0f815811581e8c0e0dd
:1022e000eec0e0225392fe853383853282e0a3fe66
:1022f000e0a3f5207821e0a3f608dffae0a3ffe0f1
:10230000a3c0e0e0a3c0e0e0a3c0e0e0a3c0e0e041
:10231000a3c0e010af0885823285833380088582b0
:1023200032858333d2afd083d0825392fe0211180c
:102330005392fe853383853282e0a3fee0a3f5202d
:102340007821e0a3f608dffae0a3ffe0a3c0e0e015
:10235000a3c0e0e0a3c0e0e0a3c0e010af08858226
:10236000328583338008858232858333d2afd08330
:10237000d0825392fe22c0925392fec0d02532c525
:1023800082c0e0e53334ffc583c0e0e532c3958207
:1023900024f210af08858333858232800885833329
:1023a000858232d2afc8f0a3e9f0a3eaf0a3ebf044
:1023b000a37921e709f0a3d8faecf0a3edf0a3ee9e
:1023c000f0a3eff0a3d0e0f0a3d0e0f0a3d0e0f0d2
:1023d000a3e520f0a3e5f0f0a3d0e0f0225392feb5
:1023e000853383853282e0c0e0a3e0f9a3e0faa35d
:1023f000e0fba37821e0f608a3dffae0fca3e0fd10
:10240000a3e0fea3e0ffa3e0c0e0a3e0c0e0a3e000
:10241000f5d0a3e0f520a3e0a3f5f0e0a3c0e01021
:10242000af08858333858232800885833385823285
:10243000d2afd0e0d082d083f592d0e0f8d0e032b5
:10244000e584f0a3e585f022e0a3f584e0f585229c
:1024500074048006740280027401c0e0f404122146
:10246000bdd0e01220282274048006740280027419
:1024700001c0e0f4041221bdd0e012203522d08347
:10248000d082c5f0e493a3c5f0c395f0f5f0e493d2
:10249000a3c395f04005e5f0048001e475f002a4c3
:1024a0002582f582e5f03583f583e493a3c0e0e46b
:1024b00093c0e022d083d082e9c0e0e493a3c38636
:1024c000f0c5f095f0f908e493a386f0c5f095f017
:1024d000700be493a3c3994005e9048002a3e4755b
:1024e000f002a42582f582e5f03583f583d0e0f98a
:1024f000e493a3c0e0e493c0e022ffffc0e0c0d0bb
:1025000075d008c092c082c083c0f0759800e5a85d
:10251000f8c2af5392fe9004d6e0d2e1f0753400d9
:10252000e8a2e7e433fee8a2e792af1212e5d0f0aa
:10253000d083d082d092d0d0d0e032c082c083533a
:1025400092fe906059e0f89004a5e028f090605861
:10255000e0f89004a6e028f090605a12257490608c
:102560005e12257490605ce0f89004a8e028f0d03a
:1025700083d08222e0f89004a7e028f022c082c035
:10258000835392fe9004a5e4f0a3f0a3f0a380deb1
:1025900074f712227b79001219759003f1122db590
:1025a000eac398f8eb99f9e82404fee93400ff90b7
:1025b00003fee0fca3e0fdc3ee9cef9d402e9003e4
:1025c000fce0fca3e0fd900400e02af8a3e03bf966
:1025d000e8c39cf8e99df99003f1122daca3ecf04f
:1025e000a3edf09003feecf0a3ed80239003f11235
:1025f0002a829003fe122ba99003fe122db59003a0
:10260000f3122dac9003fae070047402800114f010
:102610007aef7b031235e902363c74f712227be92c
:10262000600924fe601d14601a80329003f8e0a255
:10263000e350099003fbe06024148020c2e2f0d252
:10264000e380199003f8e0a2e2500c9003fbe064f1
:1026500008600ae0048005c2e3f0d2e2f09003f9da
:10266000e070089003f774fff0804890600a122a27
:102670007a703d90618fe0c0e09003fbe0f8740851
:10268000c398f8d0e0b800028004c313d8fcf52149
:1026900074ff6521700990600ae4f0a3048010e5de
:1026a000212401f8e43400f990600ae8f0a3e9f08d
:1026b00012259002363c74f712227be924fc600656
:1026c00024fe6028800d9004bee06401705e121646
:1026d000cf8059900418e064017011900412e4f066
:1026e0007b09122ea579001219c38040900412e0d4
:1026f000700890041074fff0803279001219758a06
:10270000218b22a821a922900414e028faa3e03901
:10271000fb90618fe0541ff8ea28f8eb3400f99041
:10272000040a122dac7a087b041235e902363c7497
:10273000f712227b74fe1221bd1224409004621213
:102740002db5e82412fae93400fb90605ce06008e3
:102750008a828b83e0d2e1f0e82430fce93400fd8a
:10276000e82432f584e93400f58590605ae070067b
:1027700090605ee060368a828b83e0a2e14019d2ed
:10278000e1f0e82422f582e9122a5f122a7212216e
:102790007a8c828d831235e1e40592f0a3f0790002
:1027a0008532828533835392fe023634e8241ef547
:1027b00082e9122a66fea3e0ff858482858583e094
:1027c0002ef0a3e03ff08c828d830592e0fca3e025
:1027d000fdc30592e09ca3e09d50c388828983a33a
:1027e000a3a3a3a3a3a3a3a38582848583858a82ad
:1027f0008b83e0a2e1500474088002743e0592f0dd
:102800007b02888289830592a3a3a3a3a3a3a3a386
:10281000e0fa79001219c37901808574f512227be0
:1028200074fe1221bd122440122a6a240a122a4e72
:10283000fc7003022a49ee242e12329a122db58e14
:10284000828f83a3a3a3a3a3a3a3a38582238583aa
:10285000248e828f83a3a3a3a3a3a3a3a3a3aa824b
:10286000ab83ee2434122a63687003a3e069701a04
:1028700074026c70030229df74016c607774096c58
:1028800060258a828b8374228055ec1460661470f4
:10289000030229df24fa601c14600c1460421470d7
:1028a00003022a25022a49906008e0a2e6500302aa
:1028b0002a49802cee2439122a5c8013888289836d
:1028c000a3a3a3e064037003022a498882898312c8
:1028d0002a7a70e88a828b83e0641370037416f09e
:1028e0007b02852382852483e0fa79001219c3795b
:1028f00001022a4bee245512309eee244cfcef349c
:1029000000fdea24fff521eb34fff522e521687094
:1029100003e52269706dee244d122b088e828f83a1
:10292000122a808c828d83e0c333f8e433f9e824e3
:1029300003f8e93400122da3900493e0a2e05009bb
:102940008e828f83a3a3122da89004ade4f0a3f090
:10295000a3f0a37402f0900493e0a2e04003022ae3
:1029600049906062e4f08c828d83e0f875f0e2a417
:10297000c8aaf075f004a42af9e8122d98122dac1b
:10298000022a49ea687002eb696003022a4975214c
:10299000097522007821122454ee241bfaef34002a
:1029a000fb121cc374021221a3900493e0a2e05016
:1029b00007eefaeffb12160fe40592f0ee24221256
:1029c000329a122a7212217aee2430122a5c1235bf
:1029d000e1ee2432122a5ce4f0a3f07b08805de88b
:1029e000240108e93400f9ee245c122a63687003bc
:1029f000a3e06970547521057522007821122454d2
:102a0000ee2457fcef3400fdee2424faef3400fbf3
:102a1000121cc374021221a3eefaeffb1216c9e4d2
:102a20000592f08024eefaeffb1212ebe40592f02f
:102a30000592900493e0a2e0500f7b0785238285e6
:102a40002483e0fa79001219c37900022eaaf584d2
:102a5000ef3400f5850592e022ee2414f582ef12a2
:102a600032a622f582ef123414229004621233ed62
:102a7000ee22122bd57403782122122db9e84922b7
:102a8000a3a3e028f0a3e039f02274f812227b74ab
:102a9000fe1221bd122440900462e0f584a3e0f50b
:102aa0008512281be9704e12272fe97048e584240f
:102ab0002ef582e585122a662401f0a3e03400f0a9
:102ac000906008e0c0e0e5842436f582e585122aae
:102ad0005fd0e0f0e584241ef582e585122b0b051e
:102ae00092a3a3e028f0a3e039f0059290046212cb
:102af00030a11235e985328285338312244874026d
:102b00001221a37f01022330f582ef1232a6122b8d
:102b10001222e0f8a3e0f9e8c333f8e933f92274ac
:102b2000f712227b74fe1221bd1224408a828b830d
:102b3000a3a3ac82ad839004b2ea241ef584eb1209
:102b40002a51f8a3e0f9e8c333f8e933f990049582
:102b5000e0f521a3e0f522122bbf0592e028f8a3af
:102b6000e039f98c828d83122dac9004ad122bb21a
:102b70008c828d83122ba99004af122bb27a207b0a
:102b80004e122102882189228c828d83e09521f0ca
:102b9000a3e09522f09004b4122bb2e8c333f8e915
:102ba00033f9e8122d9002362dc3e098f0a3e09996
:102bb000f022122db9900495122bd5122bbf22e8ca
:102bc0008521f0a4c8aaf08522f0a42afa8521f074
:102bd000e9a42af922e0f521a3e0f5222274f712f4
:102be000227b74fe1221bd122440122a6a24121282
:102bf0002a4ea2e35008c2e3f00592022d848e8291
:102c00008f830592a3a3858221858322906062e051
:102c100060107910121975852182852283eaf0a34c
:102c2000ebf012281be96003022d8d12272fe960bb
:102c300003022d8d906008e0c0e0ee2436122a5c7d
:102c4000d0e0f09061d5e0f89061d7e0680592603f
:102c500005e0d2e28003e0c2e2f00592906062e01b
:102c60009004af6017e024c0faa3e03437fb1238b9
:102c7000449004b41233f3122d9080151230a11237
:102c8000382e9004b4122b0e906064e028f0a3e07c
:102c900039f0852182852283e024fff0a3e034ff10
:102ca000f0ee242b122a639004b1f0ee2420122ab5
:102cb0005c122a7a604b8e828f83a3a3a3a3a3a363
:102cc000a3a3a3a3e0703aee243212309eea4b7025
:102cd00030ee243912309eea4b7026e8240108e9d0
:102ce0003400f9900495122dac852182852283123f
:102cf0002db59004b2122daceefaeffb122b1f8013
:102d0000279004957401f0a3e4f0ee241e122b0822
:102d1000852182852283122a829004ad122db585e9
:102d20002182852283122ba98e848f850592a3a3ed
:102d3000a3a3a3a30592906064122db57a717b02c0
:102d4000122102e82405f8e93400f985848285859a
:102d500083122dac8e828f83a3a3a3a31230a185ef
:102d60008482858583e0f8c3ea98eb99a2d265d086
:102d7000335005eaf0a3ebf0122db2ee242e122a06
:102d80005c122a829004621230a11235e902362eba
:102d9000122d98e8f0a3e92224eaf8e93402f99028
:102da000606422f98e828f83a3a3a3a3e8f0a3e932
:102db000f022900495122db922e0f8a3e0f92274d4
:102dc000f512227b74fe1221bd1224408031c2e52f
:102dd00012379ac0e09004bce0122e89d0e0f09047
:102de00004bce004f0a3e004f0a3e004f09004c00d
:102df000e0700c7401f07b007a0079001219c39026
:102e0000605ae0f521906002e0a2e0500478008072
:102e10000590605de0f89004bde0fae52128f8e453
:102e20003400f9e86a7001e960579004bce0f523ca
:102e300074012523547ff521e523122e89e0f8083b
:102e4000089004bce028f074802521f5827460129b
:102e5000329d900462e0f8a3e0c82408f584e834c9
:102e600000f585e0a2e70592e04003022dced2e511
:102e7000f0122e9c24dbf0122ea5122e9c4a022d5d
:102e8000de853282853383802a122e8d22547ff88c
:102e9000748028f58274603400f583229004bce0cd
:102ea000122e8de02212379ffa22853282853383db
:102eb0005392fe12244874021221a37f040223308d
:102ec00074f512227b74fe1221bd12244089210563
:102ed00092900462e0f582a3e0f583858284858385
:102ee00085a3a3a3a3a3a3a3a3e0a2e740479004c1
:102ef000bfe0f8906054e0c398f5229004bfe0254d
:102f000022f0ae82af838012ee2439faef3400fb58
:102f10001215e5ea4b60031217dd85222374ff25a5
:102f200023f5220470e2e521a2e640097900eefad9
:102f3000effb12174d022eaac0e074f1122376e5c2
:102f400035f5c675a70075a10079501219937f0158
:102f50000223ddc0d075d01875bf00d0d032c0e0dc
:102f6000c0d075d018c092c082c083c0f0e535f5de
:102f7000c6e591fe759b00f4f5915392fe906002b8
:102f8000e0a2e050047800800278087900e844016b
:102f90005e6003122dbfeea2e55004f9122ec0eec2
:102fa000a2e75029e5a8f8c2af9004d6e0d2e0f03d
:102fb000753400e8a2e7e433f9e8a2e792afe594bc
:102fc000a2e24009759403e594a2e250faeea2e66b
:102fd0004003023075906061e0f99004bde4f09028
:102fe00004bff09004621230a18a828b83a3a3a352
:102ff000a3a3a3a3a3e02410601224fc600924fc73
:10300000700f12261a80661226b680611216098089
:103010005c900492e060051460148023906060e08e
:103020006480601be0c0e0123089d0e080109060c6
:1030300058e0f890605ce028f8123089e028f090c1
:103040006060e064806016e0c0e0900462e0f8a395
:10305000e0c82413f582e8122a5fd0e0f0900493d0
:10306000e0a2e05005122bdd8003122a8a12253bd4
:103070001215f78004a2e75003123641d0f0d08336
:10308000d082d092d0d0d0e032ea242cf582eb125c
:103090003414fa746d2af58274041232a6221232a4
:1030a000a3e0faa3e0fb2274f712227b74fe122144
:1030b000bd122440900462e0fca3e0fd122db2ecae
:1030c0002429f582ed122a5fec242bfaed3400fb63
:1030d0008a848b857401687001e97012e0f80592aa
:1030e000e028fac39425402a74db2afa8024e0f50c
:1030f00021e88521f0a4f8aaf08521f0e9a42af9b5
:103100000592e0fae82af8e93400f97a257b001202
:103110002102eaf074075af87401b800028004c36f
:1031200033d8fcfbea131313541ff8ec28f8ed34e2
:1031300000f9e82424f582e912329de05b702a80d0
:1031400005e8cac39afaec24e5f582ed122a66f87e
:10315000eac39850ec8a21ec2521f8ed3400f9e817
:1031600024c0f582e9122a66faec242cf582ed12cd
:103170002a5fea02362d74f612227b74fe1221bdfc
:10318000122440900419e09060026004740e8002e2
:10319000740ff0900413e0906001f090080c12207e
:1031a0001090619512201c121759900418e0f52117
:1031b000740165219004117040e05402f97a1a7b81
:1031c0000412162d900411e0a2e050097a9f7b04ae
:1031d00075214080077a997b04752100a2e1500493
:1031e0007e8080027e0075230678231224587c1a84
:1031f0007d04e5214e44018066e0a2e050087a9ffc
:103200007b04784080067a997b04780005929004cc
:103210003f12246f7c207d0474102521f5827408f0
:1032200012329de048f912163374011221a3900462
:1032300018e0f86005740268702e900411e0a2e0b6
:1032400050087a9f7b04784080067a997b04780046
:10325000059290045f12246f7c407d04e84404f9d9
:1032600012163374011221a3900411e0a2e0e4339a
:10327000f9121627759100900419e090618260049c
:1032800074c8800274c0f08532828533831224486a
:1032900074021221a37f03022330f582ef1232a6bb
:1032a000059222f582ef3400f58322c082c0835359
:1032b00092fe906002740ff09003fae004f0640351
:1032c0007002e4f0e02425906000f090080c1220d9
:1032d0001090619512201c9003f8e05420f912160a
:1032e000271217599003f8e0a2e15004d2f08002af
:1032f000c2f0a2f0e43390600cf09003f8e0a2e199
:10330000503575d90da2e55004784080027800e868
:103310004403f5d9e0a2e550067a9f7b0480047a45
:10332000997b0479061215fd740675d9001470fa9c
:10333000e5e170fc75e19575910090618274c102c0
:10334000256e74f812227b74fe1221bd12244012e5
:1033500033e0121759122a59122010906195122049
:103360001c12342f1230a71233f8f584ef3400f515
:103370008585848285858312341a12174dee2412b6
:10338000122a63a2e250180592e0f8a3e0f58388c0
:10339000820592a3a3e02402f89061d5e028f00210
:1033a0002af574f812227b1233e0121759122a59a7
:1033b00012201090619512201c12342f1230a71287
:1033c00033f8122a5c12341a12174dee241e122af8
:1033d0005c1233f324fcf8e934ff122da3022b0313
:1033e0009004621233ed906002740ff022e0fea3ad
:1033f000e0ff22122b12e822ee242c1234119060ee
:1034000000f07591009004cae0906182f0ee2439da
:1034100022f582ef3400f583e022122db9ee243735
:103420001232a3e8f0a3e9f07900eefaeffb22ee06
:103430002436123411906008f0ee241812341190e2
:103440006005f0ee2419123411906006f0ee241a93
:10345000123411906007f02274f112227b74fe1274
:1034600021bd1224407521007522007c697d0480f5
:103470001b888289831233ed8c828d83eef0a3ef5b
:10348000f0888289831235e1882189228c828d839c
:10349000122a6d4f70398c828d83eaf0a3ebf08a8b
:1034a000828b83e4f0a3f0aa21ab2285328285339c
:1034b0008312244874021221a37f08022330e523db
:1034c0002527f8e5243528f98a828b83122a80ee95
:1034d000f8eff988828983a3a38a848b850592a358
:1034e000a3e0f523a3e0f5240592e0c39523f5239b
:1034f000a3e09524f5248a828b83a3a3a3a3a3a38b
:10350000e0f525a3e0f526c3e5239525e5249526da
:10351000a2d265d033403e8a828b83122dac8a8240
:103520008b83a3a3a3a3858284858385122db5c332
:10353000e52398e52499a2d265d033500d85848285
:10354000858583e523f0a3e524f08c828d83eaf062
:10355000a3eb0234a688828983a3a3a3a3a3a3e039
:10356000f527a3e0f528c3e49527f525e49528f58c
:1035700026c3e5259523e5269524a2d265d03350b0
:10358000288a828b83a3a3a3a3a3a3a3a3e0a2e778
:1035900050030234be88828983a3a3a3a3a3a3a359
:1035a000a3e0a2e7500302347188828983a3a3a316
:1035b000a3858284858385c3e49523fce49524fd5b
:1035c0001233edc3ec9eed9fa2d265d033500b8534
:1035d0008482858583ecf0a3edf0e8fce9fd0234fc
:1035e0008ce521f0a3e522f02274f712227b74fe11
:1035f0001221bd122440ea4b6031a2afe433fec277
:10360000af1234588a828b838016aa82ab8385825c
:10361000848583850592e0f582a3e0f58312345812
:10362000e582458370e4eea2e092af8001f085323e
:103630008285338312244874021221a37f0202235d
:103640003074f512227b79001219758a238b247944
:10365000771219939061b1e4f0e070f87403f0e030
:10366000640370f8900469122db5900462122dacb9
:10367000e8497012123783e594a2e2400302377dd5
:1036800075940002377d888289831230a190046985
:10369000eaf0a3ebf088828983a3a3122bd588825a
:1036a0008983a3a3a3a3e02521f8a3e03522f9e8a9
:1036b00024fdfee934ffff906060748012379a2485
:1036c00010601424fc600624fc60078047123176e9
:1036d00080521232ab804de521c39523e52295241b
:1036e000c39400a2d265d0335025e5232401f521ef
:1036f000e5243400f522c3e5219ee5229f400ae53a
:10370000212401fee5223400ff9003f11235e1127d
:10371000175f8010900493e0a2e0500512334280be
:10372000031233a2aa21ab227930121987eefaefe5
:10373000fb79401219877954121993e521c3952317
:10374000f8e5229524f9c3e89401e99400a2d26532
:10375000d033500c121771e5e170fc75e121801d2a
:10376000900367e0a2e04012aa21ab2212198190d7
:1037700004a912201c123783800312177112184fec
:10378000022ebbe5a8f8c2af9004d6e0c2e0f07507
:103790003400e8a2e7a2e792af22f012379f22900e
:1037a0000462e0f8a3e0c82408f582e83400f58359
:1037b000e0220000853487c2af22c0e0c0d075d0bf
:1037c00018c092c082c083c0f074fc12218d539245
:1037d000fe9004d7e0601c121621900367e054119c
:1037e0007008e5c654384487f5c69004d7e4f0c2a3
:1037f000c78026c2c7853282853383aa82ab8312f3
:10380000176be9640170129004d77401f08532825d
:10381000853383122010121843753400740412216a
:10382000a3d0f0d083d082d092d0d0d0e03275c374
:10383000007420c39afa744e9bfbeaf5a2ebf5a341
:103840005392fe22c02175c301e5a2f521e5a375bf
:10385000c300f9e5212420f8e9344ef9e8c39af8c9
:10386000e99bf9e8f5a2e9f5a3d0215392fe22c025
:1038700082c08374fc12218de5a8f8c2afe595855e
:1038800032828533835392fef0e596c0e0740112d4
:1038900021f6d0e0f0e597c0e074021221f6d0e006
:1038a000f0e8a2e7a2e792af74031221f6e4f085f4
:1038b000328285338312201074041221a3d083d066
:1038c0008222c0e0c0d075d018c092c082c083c030
:1038d000f0e59da2e040fae59d12386f90060d12ca
:1038e000201ce5abf8e58958900611f0e5809006bc
:1038f00014f0900611e0f4f5899062d0e0f8a2e1ae
:103900005027900611e0a2e5501f53abdf9062d024
:10391000e0a2e0e433900617f0900611e0c2e5f073
:103920007b307a0079061219c3900611e060097b9a
:10393000007a0079061219c3c2c5d0f0d083d082b4
:10394000d092d0d0d0e032c0e0c0d075d008c092c4
:10395000c082c083c0f0e59da2e040fae59d123828
:103960006f90060d12201ce58df8e58a589006121e
:10397000f0e590900615f07b017a0079061219c3e4
:10398000900612e0f4f58ac2eb80afc0e074f11249
:1039900023769061a9e4f090061ce0640f7012e5b4
:1039a000c7f8900368e0f5c790ff1ce0f4f5ae8817
:1039b000c790061ce064107053e5bbf9e5bafae95c
:1039c000fb7900c3ea942eeb94525003198014c380
:1039d000ea94deeb945a400bc3ea944aeb946540b8
:1039e00001090912167b90061ce4f090091ae0f414
:1039f000604690060be0fb90060ae0fa90091ae098
:103a0000f9121b9790091a74fff0802ce5bbf9e5b9
:103a1000bafae9fbe0c333f8e433f9741d28f58200
:103a2000740639f583eaf0a3ebf090061ce024104d
:103a3000fb7a0079061219c3e5a8f8c2af9004d644
:103a4000e0c2e2f0753400e8a2e7a2e792af7f019e
:103a50000223ddc0e0c0d075d018c092c082c08300
:103a6000c0f0e5d1f875d100c2c0a2e350097b03d4
:103a70007a0079041219c302393ac0e0c0d075d077
:103a800008c092c021c022c082c083c0f05392fe01
:103a9000900713123b93602b9006cee0700c7401dc
:103aa000f07b007a0079041219c3ee900713f0e559
:103ab000c1c0e074152521f58274073400f583d068
:103ac000e0800be5c4a2e650069006cd7401f0023a
:103ad0003b82c0e0c0d075d008c092c021c022c0d7
:103ae00082c083c0f0c2e95392fe9006d0e0fa9003
:103af00006cfe09a543ff860258a2174d12521f53c
:103b0000827406123bfd9006d0f089c1900711e047
:103b10006870197b027a0079041219c3800ee5a837
:103b2000f8c2af9004d6e0c2e3123c098054c0e072
:103b3000c0d075d008c092c021c022c082c083c04e
:103b4000f05392fe90079d123b93602a900758e035
:103b5000700b7401f07b00fa79041219c3ee900720
:103b60009df0e5f9c0e0749f2521f58274073400cb
:103b7000f583d0e0800be5fba2e650069007577472
:103b800001f0d0f0d083d082d022d021d092d0d0fa
:103b9000d0e032e0f52174012521543ffea3e06e10
:103ba00022c0e0c0d075d008c092c021c022c0821f
:103bb000c083c0f0c2ea5392fe90075ae0fa900721
:103bc00059e09a543ff860258a21745b2521f582db
:103bd0007407123bfd90075af089f990079be06843
:103be00070197b027a0179041219c3800ee5a8f8d6
:103bf000c2af9004d6e0c2e4123c0980853400f5df
:103c000083e0f974012a543f22f0753400e8a2e7fa
:103c1000e433f9e8a2e792af2203060302020303aa
:103c20000206020303010502020100010101010075
:103c30000003020000050002070700020301010162
:103c40000806060503040401030602020202010f2e
:103c50000008030505020701010901010201010233
:103c60000000000302020105050201010305000135
:103c70000301000000010104040203020104010029
:103c800074f012220c74f012218de5c7f528900310
:103c900068e0f5c775211075220078211224547c44
:103ca000dd7d0374021221f6aa82ab83121cc37459
:103cb000021221a378211224547c007d007add7b3e
:103cc00003121cc974021221a3752100805885219a
:103cd00082a882e875f06fa4faabf0900365123efb
:103ce0001e246ef582eb126b57a2e050377f008fd7
:103cf00082ac82e875f037a4faabf09003d3123ea1
:103d00001e2cfaeb3400fbea241af582eb126b57f7
:103d1000fa74dd2cf5827403126b574af00fefc36f
:103d2000941040cb0521900364e0f8e521c398404e
:103d30009d752100852182a88274dd28f582740397
:103d4000126b57fa853282853383e58228f582e546
:103d500083126b576af00521e521c3941040d57595
:103d60002100852182ae827f00853282853383e502
:103d7000822ef582e58312595fa3a3a3a3e0f88501
:103d80003282853383e5822ef582e583126b5748b4
:103d9000f52260768f27e522a2e0505b7523018f24
:103da00024e527782312217aa82374dd2ef5827466
:103db00003126b5758600479018002790074e52e74
:103dc000f5827403126b57586004e9d2e1f98e232f
:103dd0008f247403782312217a852725e52325254e
:103de000fae5243400fb74a02af58274f73bf583ce
:103df000e0fa7b00121b850527e522c313f522e5b7
:103e000027c394085004e522708c0521e521c39452
:103e1000085003023d628528c774100243db123e3e
:103e20002222e02afaa3e03bfbea2274f612220cdb
:103e3000e975f037a4faabf01212fd9003d31265c6
:103e40007de5c7ff900368e0f5c790f79e1255eb3c
:103e5000e4c39af521741f9bf52278211224547c27
:103e6000007d00121cc974021221a38fc779087c3f
:103e7000d57d037a007b00121825e96408601b7564
:103e8000210875220078211224547c007d007ad507
:103e90007b03121cc974021221a302467b74f01228
:103ea000220c74fe1221bd1224408a278b28126135
:103eb000680592a38582218583221255ebea4b6027
:103ec000158e828f83a3a3a3858223858324c3e0d9
:103ed0009aa3e09b5008790112149b023fcb0592f4
:103ee0009007e81224677b0705921261601219b7e8
:103ef00074041221a38e828f83a3a3a3a3a385821c
:103f0000258583268e828f83e014604a14606414b2
:103f1000602c14600d147003023fb124fe607d021a
:103f20003fcb852384852485059212246b852182cd
:103f30008522830592123fe8121351023fc478256f
:103f4000122454852384852485059212246b123f04
:103f5000d512134580167825122454852384852490
:103f600085059212246b123fd512131b7404122183
:103f7000a3805f7825122454ee2417f584ef126590
:103f80008f059212246b85238485248512246b125d
:103f90003fd512130974061221a38036ee2417f5bb
:103fa00082ef126b57f523a3e0f524e52345247037
:103fb00008123fe212134b80197823122454123f47
:103fc000e212132174021221a38007aa27ab281240
:103fd00017dd026630ee2415f582ef126e110592a0
:103fe000e0f9852182852283125a97aa27ab2822dd
:103ff00074f612220c74fe1221bd122440eafeeb6c
:10400000ff892112615e1219ab124667242af582dc
:10401000e585126b5760220592e024fd600c24fcbc
:104020007014740765217011800c740a6521600694
:10403000740165217003752100e4439201f005923b
:10404000f0900363e0f522ac21eefaeffbe0f91209
:104050001b4f900363e065226005a9221213e10261
:10406000466d74f612220ce9ff8c218d22740a121f
:1040700021f6e0fd900363e0fe7821122454effc6a
:10408000900363e0f9121b0174021221a3900363f1
:10409000e06e6005eef91213e102467b74f2122223
:1040a0000c74fe1221bd1224408a258b2612414138
:1040b0001219ab900363e0ff858482858583a38515
:1040c00082238583247821122454eefd7c048523e9
:1040d000828524831241ef121b0174021221a390e6
:1040e0000363e06f6005eff91213e1e5842417f82c
:1040f000e5853400f98e2188828983e02521f0a3ab
:10410000e03400f074166e701788828983c3e094df
:1041100016a3e094004009aa25ab26121495801935
:1041200079008523828524831255eb12149be405c4
:1041300092f0aa25ab261217dd8532828533838063
:104140001c8c218d22e9fe1257527b07900363e0fd
:10415000fa7901228532828533835392fe122448f4
:1041600074021221a37f060222e474f412220c745a
:10417000fe1221bd1224408a238b241241411219c0
:10418000ab0592e0f8740768700feef9ac21ad2230
:10419000aa23ab241214a7804d740a6805929003d9
:1041a00063700fe0ffeefcaa21ab22e0f9121b07bf
:1041b000801de0ff7821122454eefd7c008584826e
:1041c000858583a31241ef121b0174021221a39073
:1041d0000363e06f6005eff91213e1e40592f0aac2
:1041e00023ab241217dd853282853383025f1c12d4
:1041f0007528900363e0f92274f012220c74fe1209
:1042000021bd12244074fe12218d8a278b288a82b8
:104210008b83a3a3a3a3a3a3a3a3a38582258583a1
:104220002612615e1219ab852782852883a3a3e03d
:1042300024faf5231245e68525848526850592a373
:1042400085328285338305921245c07e00804b9073
:104250000363e0ffe5842402f521e5853400f522bf
:10426000782112245474fe29fd7c0385848285857f
:10427000831241ef121b0174021221a3900363e029
:104280006f6005eff91213e1852582852683e0f53d
:10429000212efee584252112658b852582852683c6
:1042a000e0f9eec3952340a78921e523c3952112a8
:1042b00045b11245f912149502662b74f012220cc6
:1042c00074fe1221bd12244074fe12218d8a238bac
:1042d000241261531219ab852382852483a3a3e0a2
:1042e00024faf52212574e858427858528e5272450
:1042f0002af582e5281261497401f01265d464013f
:1043000070047e0280027e107521008010e06f60d4
:1043100005eff91213e174022e2521f521e521c3e1
:104320009522505a5392fe900363e0ffa8218532f4
:104330008285338312607612658feef5257825121b
:104340002458e5842403fce5853400fd1243bf05b1
:1043500092900363e0f9121b1974011221a3e990f2
:10436000036370a9e06f6005eff91213e1852782fe
:10437000852883e4f0aa23ab241217dd803e852232
:1043800021e52124fef8e434fff98e21e8c39521cc
:10439000f8e99400f98532828533835392fe125fe7
:1043a000b02401f8a3e03400f9852782852883052d
:1043b00092a3125a88aa23ab2412149502662b05e5
:1043c00092a3e0faa3e0fb2274021221a3853282b9
:1043d0008533835392fe12244874021221a37f086e
:1043e0000222e474f012220c74fe1221bd12244049
:1043f00074fe12218d8a278b281261531219ab8506
:104400002782852883a3a3e024fbf52112516705a9
:10441000929003d31255bc858225858326e52524f9
:104420002af582e5261251c07f00800de06e6005fe
:10443000eef91213e174042fffefc39521505fefe3
:10444000f88532848533851244ce12614985828491
:104450008583850592900363e0fe7522027822121f
:104460002458e5252417f523e5263400f524782380
:104470001224541245cf121b1374031221a3e99086
:10448000036370a8e06e6005eef91213e1852582e2
:10449000852683e4f0aa27ab281217dd802da821fa
:1044a000853282853383e028f8a3e012658624fef6
:1044b000f582e934fff58312460e85258285268331
:1044c000a3125a88aa27ab2812149502662b0592cc
:1044d000e028f582a3e02274f012220c74fe12216f
:1044e000bd12244074fe12218d8a278b288a828b6c
:1044f00083a3a3a3a3a3a3a3a3a385822585832624
:104500008a828b83a3a3e024faf52112615e12193b
:10451000ab1245e68532828533831245c07f008029
:1045200012e06e6005eef91213e18525828526837f
:10453000e02fff852582852683e0f8efc395215083
:104540005b8f23e5252523fae5263400fb8a828b41
:1045500083a3858284858385900363e0fe74fc28b1
:10456000f5227822122458ea2405f523eb3400f5cd
:104570002478231224541245cf121b1374031221e2
:10458000a3e9900363709ae06e6005eef91213e1ff
:10459000126bd6aa27ab281217dd80128823e521db
:1045a000c395231245b1a3a31245f91214950266cf
:1045b0002bf895e0f9e52528f582e52639f58322e3
:1045c00012748f242af582e8126e117401f022858c
:1045d0008482858583a3a31255c5faa3e0fb0592c7
:1045e000900363e0f922126bc01245ed22853282fe
:1045f000853383e8f0a3e9f022a312460e853282c8
:10460000853383126bb21245f3aa27ab2822e0242c
:1046100001f8a3e03400f92274f612220c74fe12a1
:1046200021bd1224401213e1e970047a86801c1225
:104630004667241612658b0592e0a2e040047a8159
:1046400080091217d7ea4b70067a827b01800d052c
:1046500092e0c2e0f012135d7a007b008532828521
:1046600033835392fe800c125752e58422853282a6
:1046700085338312244874021221a37f020222e4ac
:1046800074f212220c74fe1221bd122440eafeebd9
:10469000ff8c258d261213e1e970047a86801212b0
:1046a00049de60047a8180091217d7ea4b70067ad6
:1046b000827b01803074101221f6e0f8c39414500c
:1046c00004882280037522148525238526247823d7
:1046d000122454a922eefceffd12133f74021221a2
:1046e000a37a007b0002415474f012220c74fe1273
:1046f00021bd1224408a278b28ecff1213e1e970b8
:10470000047a8680251249de60047a81801cefa23b
:10471000e04005c3940450047a80800e1217d78ab3
:10472000258b26ea452670067a827b018034efc30a
:1047300094165004effe80027e16740a12486c1222
:1047400024677b0705921261601219b77404122165
:10475000a3eef9ac27ad28aa25ab261213337a00b5
:104760007b000243cd74f012220c74fe1221bd12a4
:1047700024408a258b26ecfeedff74141221f6e00e
:10478000f521c3941350191213e1e970047a86805d
:10479000211249de60047a818018e52545267004df
:1047a0007a80800e1217d78a278b28ea4528700650
:1047b0007a827b01804d74080592f0a3e525f0a371
:1047c000e526f09007e81224677b070592126160e6
:1047d0001219b774041221a3741212220005921246
:1047e000246b8e238f2405927823122454a921aca4
:1047f00025ad26aa27ab2812132774041221a37a09
:10480000007b000243cd74f412220c74fe1221bd11
:104810001224408a221213e1e970047a86801a1267
:1048200049de60047a8180111217d78a238b24ae67
:1048300023af24ee4f70067a827b01802c7409121c
:10484000486c1224677b0705921261601219b774d5
:10485000041221a3e5226004790180027900eefab6
:10486000effb12132d7a007b00025f130592f0a379
:10487000e4f0a3f09007e82274f012220c74fe1208
:1048800021bd122440eafeebff8c278d281213e194
:10489000e970047a86801f1249de60047a818016ee
:1048a000ee4f70047a80800e1217d78a258b26ea85
:1048b000452670067a827b01805474121221f6e03c
:1048c000f8c39414500488218003752114740605dc
:1048d00092f0a3eef0a3eff09007e81224677b07b5
:1048e00005921261601219b774041221a38527235f
:1048f0008528247823122454a921eefceffdaa2553
:10490000ab2612133974021221a37a007b000243f2
:10491000cd74f412220c74fe1221bd122440eafe62
:10492000ebff1213e1e970047a86801a1249de6007
:10493000047a818011ee4f70047a8080091217d7b3
:10494000ea4b70067a827b01802a74071249d9eefd
:10495000f0a3eff0858482858583a3a3a3eef0a363
:10496000eff0e5842417f582e58512746a12149538
:104970007a007b00025f1374f412220c74fe122181
:10498000bd122440eafeebff1213e1e970047a86bf
:10499000801a1249de60047a818011ee4f70047a29
:1049a0008080091217d7ea4b70067a827b01802635
:1049b00074051249d9a3a3a882a983eef0a3eff04e
:1049c00088828983125aa00592a3e8f0a3e9f01225
:1049d00014957a007b00025f13124b50a3221257ea
:1049e000520592e02274f212220c74fe1221bd12c2
:1049f00024408a218b22ecfeedff1213e1e97004c2
:104a00007a8680121249de60047a8180091217d7f3
:104a1000ea4b70067a827b01801d74041249d9e545
:104a200021f0a3e522f00592a3a3a3eef0a3eff0fb
:104a30001214957a007b0002415474f012220c7417
:104a4000fe1221bd1224408a278b288c258d261228
:104a500013e1e970047a86802e1249de60047a81bf
:104a6000802574141221f60592e0ff74026f60092c
:104a700074106f60047a80800e1217d78a238b24fb
:104a8000ea452470067a827b01803474030592f033
:104a90008f2175220005927821122454741412215a
:104aa000f6124b75121cc374021221a3124ac2855e
:104ab0008482858583124b5c1214957a007b0002f8
:104ac00043cde5842415f582e585126e11eff022c1
:104ad00074f012220c74fe1221bd1224408a278b1e
:104ae000288c258d261213e1e970047a86802e1217
:104af00049de60047a81802574141221f60592e063
:104b0000ff74026f600974106f60047a80800e1267
:104b100017d78a238b24ea452470067a827b01808a
:104b20002c8f21752200782112245474141221f63e
:104b3000124b75121cc374021221a3124ac27401d3
:104b4000124b50124b5c1214957a007b000243cd3d
:104b50000592f0858482858583059222a3e527f05e
:104b6000a3e528f00592a3a3a3e525f0a3e526f08d
:104b7000aa23ab2422125a97e5842405fae585344a
:104b800000fb2274f012220c74fe1221bd1224408c
:104b900074fe12218d1265778c278d2874141221d2
:104ba000f6e0fea3e0ff1213e1e970047a86802aa2
:104bb0001249de60047a81802174181221f6059270
:104bc000e0f522c3941140047a80800e1217d78a30
:104bd000258b26ea452670067a827b018069e5846a
:104be0002417f582e585126149eef0a3eff0740217
:104bf0000592f0e5842415f582e585126149e522e8
:104c00000592f0f5237524007823122454741812a9
:104c100021f6124b75121cc374021221a385328235
:104c2000853383125aa0858482858583a3125a888e
:104c30000592a3a3a3e527f0a3e528f0aa25ab26b8
:104c40001214957a007b000243c874f112220c748e
:104c5000fe1221bd12244074fc12218d7402122117
:104c6000f612657de5c7f527900368e0f5c7740285
:104c70001221f612749e853284853385e582059271
:104c8000f0a3e583f08532828533830592125c764a
:104c9000f874021221f6124dda059290f79de0f5b4
:104ca00025ff741dc39af5268e228e2180080522c9
:104cb000efc313ff052190f79ce0fce521c39c5056
:104cc00044eec39526503e124dec70e8efa2e05042
:104cd000dfa3a3a3a3a3e0640270d375230275240a
:104ce000007823122454125a8c8e23e58425231233
:104cf00065832402fae93400fb121cc374021221fa
:104d0000a30e0e80abee6013858482858583a3efae
:104d10006004740280027403124dc3e52270030222
:104d20004dbb8532828533835392fe1265daf87467
:104d30001dc398fa95e0fbc3ea9410eb9400a2d24d
:104d400065d033407674021221f6124ddaaf258e0b
:104d5000218006efc313ff0521e521c39c5042e5e6
:104d600026603e5392fe124dec70ecefa2e050e351
:104d7000a3a3a3a3a3e0641070d97523108e247895
:104d800023122454125a8ce5842402fae585340057
:104d9000fb121cc374021221a37e1074ff25226033
:104da0000e8584828585835392fea37406800985cf
:104db0008482858583a37407124dc38527c7740435
:104dc000026cedf074012ef80592f00885328285b0
:104dd000338305921265de28f02205921260763444
:104de00000f5850592a3a3a3a37e002290f7961257
:104df00074dce52175f006a4faabf0e82afae93b89
:104e0000fb8a828b83e02274f012220c74fe122142
:104e1000bd12244074f912218d853282853383ecd2
:104e2000f0a3edf08a278b28e9fe752200126bd6dd
:104e30008a828b830592a3a3a3a3858223858324df
:104e400074026e600caa23ab241219ede960027e95
:104e50000274191221f6125aa074191221f6125a6c
:104e60008874191221f612605774100592f07402ba
:104e70006e6003024efb8523828524830592125abd
:104e8000a0e8700374286970567f0074191221f627
:104e9000126057740a0592f0e5c7c0e0740412214d
:104ea000f6d0e00592f0900368e0f5c7126bd605e6
:104eb0009290f79ce0f526f582ac828527828528c2
:104ec00083126ce45003025035852782852883a322
:104ed000a31255ebc3ec9ae49b50258c25802474d7
:104ee0000168700374286970047f01809e740368f0
:104ef000700374286970047f028090790002504228
:104f0000eaf525e814f521801274021221f61274d4
:104f10009be521f0a3e4f015210521e521c39525aa
:104f20004003025026125a9d74051221f6125a8827
:104f3000852182a882e875f006a4faabf074051208
:104f400022000592e02af582a3e03bf583ac82ad16
:104f5000830592e06f70c2852282aa8285328485a1
:104f600033850592e02a1250477402122200e5822e
:104f70000592f0a3e583126b30e02404f527126557
:104f8000d4f5236009e527652360030250268527b1
:104f900023ea126b3d4003025026e527f0eaf52292
:104fa000e8240108e43400f974021221f605921293
:104fb0006057e80592f0a3e9126b301258411224b1
:104fc000548c828d83a3a3a31274951221f6126bc5
:104fd0007c121cc374021221a38029e52175f006fe
:104fe000a4f8a9f074051221f65392fe125c6df834
:104ff0007003024f097401687003024f09e86f7073
:1050000003024f090521e521c3952640cee526651b
:10501000216003024f0974021221f612749b74ff7f
:10502000f0a3f0024f19e522600b74191221f65318
:1050300092fe126bdc74041221f65392fee0f5c767
:10504000a92274070243caf582a3e0126e110592e9
:10505000a32274f712220c74fe1221bd12244012f6
:1050600041471219ab0592e0f8740668600a7408ab
:10507000686005740968701ce41251b77c00124323
:10508000bf0592e0f9121b4f900363e06e6005eede
:10509000f91213e102602b74f212220c74fe122139
:1050a000bd1224408a258b26ecffedfeec24010c7a
:1050b000e43400fd12130f8a848b8574101221f6dc
:1050c000125a93ec4d701deff912157fe9fec3944f
:1050d0001540027e147d00eefceff9aa84ab851228
:1050e0001597801aeec3941540027e148e21752206
:1050f000007821122454121cc374021221a3eef969
:10510000aa25ab26121315024139853282853383d5
:1051100002603474f712220c74fe1221bd12244076
:105120008a848b8512515560237b081261601219a5
:10513000ab125155fae4f0900363e0fef9121b0d37
:10514000900363e06e6005eef91213e1aa84ab856b
:105150001217dd80b51251679003d3125faa24198c
:10516000f582e9126b5b2212516b2212516f229071
:105170000363e075f037a4f8a9f02274f712220c4b
:1051800074fe1221bd1224401249de640b6025e535
:10519000842419f582e5851251c012574e740b050f
:1051a000921251b7f9121b49900363e06e6005ee4d
:1051b000f91213e102602bf00592900363e0fe22e6
:1051c000126e1174010592f02274f112220c74fe19
:1051d0001221bd12244074fc12218d74021221f69a
:1051e00012657d89228c27e975f006a4f8a9f09054
:1051f000f79612695df5850592a3a3a3e0f582a356
:10520000e0f583858284858385a3e0f80592e0f547
:1052100026752100740758f97401b900028004c38f
:1052200033d9fcf525e8131313541ffe804c059267
:105230009007e81224677b0805921261601219b783
:1052400074041221a374012522c0e0125f292419dd
:10525000126146d0e0f07402122200059212246b13
:10526000ad27ac22791d74021221f605921255eb7e
:1052700012152574021221a30521900364e0f8e5bc
:1052800021c398400302532d852182a882e875f03e
:105290006fa4faabf090036512533be584246ef5de
:1052a00082e585126b57a2e050cee8900363f09040
:1052b0000361e584f0a3e585f0e526a2e45031e83a
:1052c000125349f8eb39f9e8241a126b545525604a
:1052d0001f1217d7ea4b6055740212220005921272
:1052e000246bad27ac22791b12152574021221a361
:1052f000e526a2e55082900363e0125349faeb39a8
:10530000fbea2422f582eb126b57552570030252fb
:105310007812515860030252781217d712657785b8
:10532000328285338312614d600302522e7404125f
:1053300021a3853282853383026cf912533f22e028
:105340002af584a3e03bf5852275f037a4f8a9f08f
:105350009003d3e02efaa3e03400fbea282274f095
:1053600012220c74fe1221bd12244089218c278d3b
:105370002875220074121221f6e0fea3e0ff8e824f
:105380008f83e0f525e5c7f5241255d4f52690f76f
:105390009ce0f8e526c39840097522018e828f8330
:1053a0008023e526125aa470098524c77a887b01d8
:1053b0008049a92612157fe98e828f83f0c395213b
:1053c0005007752207e4f08022a821e0c398f0f886
:1053d000c39525500488238003852523e523f0ad5c
:1053e00021fca926aa27ab281215978524c7e522f8
:1053f0006005fa7b0480047a007b000243cd74f6da
:1054000012220c74fe1221bd122440eaf8ecfaedcf
:10541000fb752100e5c7fe900368e0f5c7e814fdc1
:10542000740c1221f6125aa090f79ce0fcedc39c7c
:10543000400b75210188828983e4f0801eed12659e
:10544000ab0592e0fca2e75004741080027402885d
:105450008289830592f0ecf91219f98ec7e521a231
:10546000e05005fa7b0480047a007b0002466d74ec
:10547000f012220c74fe1221bd12244074fe12217f
:105480008d853282853383ecf0a3edf089257e0093
:105490001255cef52290f79ce0c395225003025599
:1054a000afe52275f006a4f8a9f0059290f79612e0
:1054b00055bc8582278583280592a3a3e0fc24faa6
:1054c000600a14600724fb60030255ad74141221b6
:1054d000f6e0f521740c6c700302559585278485e0
:1054e00028850592a3a3a3e0f582a3e0f583852593
:1054f00084aa84858284858385a3a3a3a3e0f885f9
:105500002123ea2523f523e43400f524e89523e458
:105510009524c365d03350057e0d0255b00592a386
:10552000a3858284858385852182a882790074067b
:105530006c882389247823701b122454740212214e
:10554000f61255c0faa3e03400fb121cc374021219
:1055500021a3803112245474021221f61255c01274
:105560005047aa82ab83121cc374021221a3e52107
:105570002525c0e0852782852883a3a3a31265e99a
:10558000d0e00592f08527828528835392fea3a35d
:10559000e0640c700b8532828533831255eb8004f6
:1055a0007a007b00ac21a92212153780050e0e0e61
:1055b0007f048526c7eefaeffb0243c8126621225c
:1055c0001255c52a22e0fca3e0fd0592e0227f00ef
:1055d000e5c7f526900368e0f5c7ea1422858482c2
:1055e000858583e024f9f98e828f831275282274d1
:1055f000f412220c74fe1221bd1224408c848d857d
:10560000e9ffe5c7f5211255d4fe90f79ce0c39e53
:10561000500479018034740e1221f6e0f522600402
:105620007a0280027a80eef9121579e9701ce4f5ad
:1056300023f5247823122454ad22effcaa84ab85f1
:10564000eef912159174021221a38521c70241e6d9
:1056500074f312220c74fe1221bd1224408a218b95
:105660002212574e8a828b83a3a3a3a3a3a3a3a32f
:10567000a3e0700f12584a1215e5ea4b607a121730
:10568000dd80f1e5c7fe900368e0f5c7e584242bd3
:10569000f523e5853400f524852382852483126172
:1056a0004d605388828983a3a3a3a3a3a3a3a3a329
:1056b000aa82ab83e0ff8a848b850592a3a3122480
:1056c0006b7d01888289830592a3a3e024f7fcea1d
:1056d0002404faeb3400fb74ff2ff91215917402c5
:1056e0001221a3e9f525aa23ab241215e51217dd33
:1056f000e525702080a28ec7852182852283a3a301
:105700001274587419f07900aa21ab221213158073
:105710002a1217dd12584a1215e5ea4b70f3e525f7
:10572000f52378231224588f23ac237d007918aaff
:1057300021ab2212136974011221a38532828533b1
:105740008312244874021221a37f050222e4125717
:10575000522212516b9003d312575c22e028f58439
:10576000a3e039f5852274f412220c74fe1221bdd7
:105770001224408a848b85858482858583a3a3a394
:10578000a3a3a3a3a3a3ae82af83e5c7f521900390
:1057900068e0f5c78e828f83e014f990f79ce0c330
:1057a0009950217401f52178211224588e828f831b
:1057b000125a937916aa84ab8512136974011221c7
:1057c000a30241e67a02121579e970d91217d78a35
:1057d000238b24ae23af24ee4f8521c77003025ada
:1057e000bfac84ad8512584a1215eb85848285853d
:1057f00083a3a3858221858322125841122454e574
:10580000842404fce5853400fdee2404faef340022
:10581000fb121cc374021221a3852182852283e01e
:105820008e828f83a3a3f08e828f83a3a3a3a3a3cf
:10583000a3a3a37417f07900eefaeffb12131580ff
:1058400080e0f523752400782322125f2d242bfaa3
:10585000e93400fb2274f012220c74fe1221bd12f6
:10586000244074fb12218d74031221f612657d8988
:10587000258c278d28126bbc74011221f6125a88d0
:10588000e5c7fe900368e0f5c78c828d83a3a3e093
:10589000f88821ec2521f582ed12595f858221855a
:1058a0008322741bc398ff8027e9cfc39fff8527fe
:1058b00082852883a3a3e02523f0e5212523f52174
:1058c000e5223400f52274011221f612596c04f01d
:1058d00074011221f612596cfac395255071ef60cc
:1058e0006e853282853383858223858324782312d3
:1058f00024547821122454eff97c007d00eac3334c
:10590000fae433fb74071221f6125c7bfaa3e0fb86
:1059100012156774041221a3e9f5238532828533b9
:1059200083e06085853284853385059212246f7407
:10593000041221f605921265dafca3e0fd790eaaa5
:1059400027ab2812136974011221a38ec7800b8e16
:10595000c77900aa27ab28121315740502662d1209
:105960005963223400f583a3a3a3a3221274b7e0e2
:105970002274f012220c74fe1221bd1224408c21dc
:105980008d22e9fe1255cef52574141221f6e0f5ac
:1059900027a3e0f52890f79ce0c39525500b8527b9
:1059a000828528837401025a5b7a01a92512157930
:1059b000e9852782852883f06003025a7c85258249
:1059c000aa8274121221f6125aa074121221f6122f
:1059d0005a88ea125aa4706c059212574ea884a9ec
:1059e00085e82431126b54705074121221f6125a49
:1059f00093e82434126146ecf0a3edf0e82436126b
:105a00006146eef0900363e0ffeef5237823122465
:105a100058ac21ad22ea24010ae43400fb90036370
:105a2000e0f9121b1f74011221a3900363e06f6061
:105a300005eff91213e1025ab6126b4f85278285e2
:105a400028838017a92512157fe9ffc39521e495c6
:105a500022500b8527828528837407f0801ee5215c
:105a6000cfc39fffeec39f5002eeffad21effca915
:105a70002574121221f61255eb1215978526c7efe1
:105a8000f9026630f99003611245f3228a828b8312
:105a9000a3a3a3125a9722e0fca3e0fd2290f7965d
:105aa0001274dc2275f006a4f8a9f090f796125f44
:105ab000b5a3e0640c227a017b009003a080077af2
:105ac000017b0090032e740802209f74f112220cb7
:105ad00074fe1221bd12244074f812218d126577d4
